{
  "contractName": "Guestbook",
  "abi": [
    {
      "constant": false,
      "inputs": [
        {
          "name": "_postIndex",
          "type": "uint256"
        },
        {
          "name": "_name",
          "type": "string"
        },
        {
          "name": "_message",
          "type": "string"
        },
        {
          "name": "_day",
          "type": "uint256"
        },
        {
          "name": "_month",
          "type": "uint256"
        },
        {
          "name": "_year",
          "type": "uint256"
        },
        {
          "name": "_hour",
          "type": "uint256"
        },
        {
          "name": "_minute",
          "type": "uint256"
        }
      ],
      "name": "setAll",
      "outputs": [],
      "payable": false,
      "stateMutability": "nonpayable",
      "type": "function",
      "signature": "0x20881e76"
    },
    {
      "constant": true,
      "inputs": [
        {
          "name": "_postIndex",
          "type": "uint256"
        }
      ],
      "name": "getPosting",
      "outputs": [
        {
          "name": "",
          "type": "string"
        },
        {
          "name": "",
          "type": "string"
        },
        {
          "name": "",
          "type": "uint256"
        },
        {
          "name": "",
          "type": "uint256"
        },
        {
          "name": "",
          "type": "uint256"
        },
        {
          "name": "",
          "type": "uint256"
        },
        {
          "name": "",
          "type": "uint256"
        }
      ],
      "payable": false,
      "stateMutability": "view",
      "type": "function",
      "signature": "0x3d746f78"
    },
    {
      "constant": true,
      "inputs": [],
      "name": "countPostIndex",
      "outputs": [
        {
          "name": "",
          "type": "uint256"
        }
      ],
      "payable": false,
      "stateMutability": "view",
      "type": "function",
      "signature": "0xa9f9c44e"
    }
  ],
  "bytecode": "0x608060405234801561001057600080fd5b50610783806100206000396000f3fe608060405260043610610057576000357c0100000000000000000000000000000000000000000000000000000000900463ffffffff16806320881e761461005c5780633d746f78146101f8578063a9f9c44e1461033b575b600080fd5b34801561006857600080fd5b506101f6600480360361010081101561008057600080fd5b8101908080359060200190929190803590602001906401000000008111156100a757600080fd5b8201836020820111156100b957600080fd5b803590602001918460018302840111640100000000831117156100db57600080fd5b91908080601f016020809104026020016040519081016040528093929190818152602001838380828437600081840152601f19601f8201169050808301925050505050505091929192908035906020019064010000000081111561013e57600080fd5b82018360208201111561015057600080fd5b8035906020019184600183028401116401000000008311171561017257600080fd5b91908080601f016020809104026020016040519081016040528093929190818152602001838380828437600081840152601f19601f8201169050808301925050505050505091929192908035906020019092919080359060200190929190803590602001909291908035906020019092919080359060200190929190505050610366565b005b34801561020457600080fd5b506102316004803603602081101561021b57600080fd5b81019080803590602001909291905050506103c1565b60405180806020018060200188815260200187815260200186815260200185815260200184815260200183810383528a818151815260200191508051906020019080838360005b83811015610293578082015181840152602081019050610278565b50505050905090810190601f1680156102c05780820380516001836020036101000a031916815260200191505b50838103825289818151815260200191508051906020019080838360005b838110156102f95780820151818401526020810190506102de565b50505050905090810190601f1680156103265780820380516001836020036101000a031916815260200191505b50995050505050505050505060405180910390f35b34801561034757600080fd5b506103506105ba565b6040518082815260200191505060405180910390f35b60016003899080600181540180825580915050906001820390600052602060002001600090919290919091505550506103a08888886105c7565b6103ac88868686610620565b6103b7888383610677565b5050505050505050565b60608060008060008060008060008981526020019081526020016000206000016000808a8152602001908152602001600020600101600160008b815260200190815260200160002060000154600160008c815260200190815260200160002060010154600160008d815260200190815260200160002060020154600260008e815260200190815260200160002060000154600260008f815260200190815260200160002060010154868054600181600116156101000203166002900480601f0160208091040260200160405190810160405280929190818152602001828054600181600116156101000203166002900480156104fe5780601f106104d3576101008083540402835291602001916104fe565b820191906000526020600020905b8154815290600101906020018083116104e157829003601f168201915b50505050509650858054600181600116156101000203166002900480601f01602080910402602001604051908101604052809291908181526020018280546001816001161561010002031660029004801561059a5780601f1061056f5761010080835404028352916020019161059a565b820191906000526020600020905b81548152906001019060200180831161057d57829003601f168201915b505050505095509650965096509650965096509650919395979092949650565b6000600380549050905090565b8160008085815260200190815260200160002060000190805190602001906105f09291906106b2565b5080600080858152602001908152602001600020600101908051906020019061061a9291906106b2565b50505050565b82600160008681526020019081526020016000206000018190555081600160008681526020019081526020016000206001018190555080600160008681526020019081526020016000206002018190555050505050565b816002600085815260200190815260200160002060000181905550806002600085815260200190815260200160002060010181905550505050565b828054600181600116156101000203166002900490600052602060002090601f016020900481019282601f106106f357805160ff1916838001178555610721565b82800160010185558215610721579182015b82811115610720578251825591602001919060010190610705565b5b50905061072e9190610732565b5090565b61075491905b80821115610750576000816000905550600101610738565b5090565b9056fea165627a7a72305820789e142b9262c6551b863f17c9cf6600bc9173c497617fedbf2ee66cfc66cf900029",
  "source": "// CompilerRange definieren\npragma solidity >=0.5.0 <0.6.0;\n\n// Smart Contract\ncontract Guestbook {\n\n    // Objekt: Nachrichtenbeitrag\n    struct Post {\n        string name;\n        string message;\n    }\n\n    // Nachrichtenbeiträge sollen in \"posts\" gesammelt werden\n    mapping(uint => Post) posts;\n\n    // Objekt: Datum\n    struct Date {\n        uint day;\n        uint month;\n        uint year;\n    }\n\n    // Daten sollen in \"dates\" gesammelt werden\n    mapping(uint => Date) dates;\n\n    // Objekt: Zeit\n    struct Time {\n        uint hour;\n        uint minute;\n    }\n\n    // Zeiten sollen in \"times\" gesammelt werden\n    mapping(uint => Time) times;\n\n    // Ein Array welches als Liste verwendet wird (nur interner Contract-Zugriff)\n    uint[] internal postIndex;\n\n\n    // Setter\n\n    // Eine Nachricht setzen (nur interner Contract-Zugriff)\n    function setPost(uint _postIndex, string memory _name, string memory _message) private {\n        posts[_postIndex].name = _name;\n        posts[_postIndex].message = _message;\n    }\n\n    // Ein Datum setzen (nur interner Contract-Zugriff)\n    function setDate(uint _postIndex, uint _day, uint _month, uint _year) private {\n        dates[_postIndex].day = _day;\n        dates[_postIndex].month = _month;\n        dates[_postIndex].year = _year;\n    }\n\n    // Eine Zeit setzen (nur interner Contract-Zugriff)\n    function setTime(uint _postIndex, uint _hour, uint _minute) private {\n        times[_postIndex].hour = _hour;\n        times[_postIndex].minute = _minute;\n    }\n\n    // Post, Datum und Zeit in einer Funktion setzen (externer Zugriff erlaubt)\n    // Info: Schreiben in die Blockchain kostet Transaktionsgebühren\n    // Also auf eine Transaktion begrenzen!\n    function setAll(uint _postIndex,\n        string memory _name, string memory _message,\n        uint _day, uint _month, uint _year,\n        uint _hour, uint _minute) public {\n        postIndex.push(_postIndex) -1;\n\n        setPost(_postIndex, _name, _message);\n        setDate(_postIndex, _day, _month, _year);\n        setTime(_postIndex, _hour, _minute);\n    }\n\n\n    // Getter\n\n    // Post, Datum und Zeit ausgeben (externer Zugriff erlaubt)\n    function getPosting(uint _postIndex) public view returns (string memory, string memory,\n        uint, uint, uint, uint, uint) {\n        return (\n        posts[_postIndex].name,\n        posts[_postIndex].message,\n        dates[_postIndex].day,\n        dates[_postIndex].month,\n        dates[_postIndex].year,\n        times[_postIndex].hour,\n        times[_postIndex].minute\n        );\n    }\n\n    // Arraygröse wird ausgegeben (externer Zugriff erlaubt)\n    function countPostIndex() public view returns (uint) {\n        return postIndex.length;\n    }\n\n}",
  "sourcePath": "/home/gregor/Work/smartdapps/Guestbook/contracts/Guestbook.sol",
  "compiler": {
    "name": "solc",
    "version": "0.5.0+commit.1d4f565a.Emscripten.clang"
  },
  "schemaVersion": "3.0.6",
  "updatedAt": "2019-04-09T09:05:03.588Z",
  "devdoc": {
    "methods": {}
  },
  "userdoc": {
    "methods": {}
  }
}